:03000000020030CB
:0300030002007880
:0300130002009C4C
:10001B0009B914047900D230758D4C758B00C28FE1
:01002B0032A2
:100030007581607530007F0175A88DD288D28A7570
:100040008910758D4C758B00D28E900300E493312E
:1000500052316CA3600280F53134E530B4000411F4
:10006000BC80F7B4010411D980F0B4020411FB8004
:10007000E9B403E611FE80E23175E530FAB400041C
:1000800075300132B4010475300232B402047530A7
:100090000132B403067530017A0132323175E53030
:1000A000B4010475300332B4030475300132B40274
:1000B0000A7530007D007E007F013232748031523B
:1000C0007430315F7430315F743A315F7430315F56
:1000D0007430315F7D007E002230300DC2300EBEA4
:1000E0003C037E000D310DDA0122748D31527420F3
:1000F000315F7420315F7420315F22310D22303046
:100100000BC2300EBE3C037E000D314122748031A3
:1001100052ED75F00A842430315FE5F02430315F10
:10012000743A315FEE75F00A842430315FE5F024D3
:1001300030315F2274C031527453315F7454315F77
:1001400022748D3152744C315F7441315F7450317F
:0C0150005F22F590C2A1C2A0D2A2316CC7
:10015C00C2A222F590D2A1C2A0D2A2316CC2A2221C
:10016C007BFA7CFFDCFEDBFA227B037CC8DCFEDB4B
:02017C00FA2265
:05030000380E010600AB
:00000001FF
